:2000000001C0D8C0112480914000882369F0282F30E083FD03C02C7F232B31F480934000E2
:200020008CBB80E0AFD0ECC0A895A09AA89A1092E205809182128370813029F58CE590E064
:20004000809348089093490881E080934B0883E0809347081092450880EC8093460888E019
:2000600091D0079A87E0815089F4A8950DE983E0D82E7CD08134F1F479D0182F8CD0123811
:2000800089F480E013C083E790E0DACF179A2EEC36E5A8959091440897FDE8CF21503109A7
:2000A000C1F7E1CF89E0113809F083E058D080E156D0DFCF823419F484E175D0F8CF853480
:2000C00011F485E0FACF853531F450D0C82F4ED0D82F61D0ECCF863519F484E064D0D1CFE6
:2000E0008436B9F443D042D0182F40D0863479F4D05C3CD0888321961150D9F74CD004BFEC
:20010000D0920010809102108370E1F7D0CFDC5EF0CF843791F42AD029D0182F27D0F82E50
:200120003AD086E4F81207C0D05C8881219617D01150D9F7BCCFDC5EF8CF853751F42BD0EE
:20014000809100110CD08091011109D080910211ADCF813509F0BDCF81E014D0BACF9091DB
:20016000440895FFFCCF8093420808958091440887FFFCCF909141088091400892FD01C019
:20018000A89508959091010190FDFCCF98ED94BF809300010895EADF803219F081E0F2DFCB
:2001A000FFCF84E1DCCFCF93C82FE0DFC150E9F7CF91F1CF683048F48DE984BF60930010A8
:2001C000809102108370E1F70895FC0140830895FFFFFFFFFFFFFFFFFFFFFFFFFFFFFFFF47
:2001E000FFFFFFFFFFFFFFFFFFFFFFFFFFFFFFFFFFFFFFFFFFFFFFFFFFFFFFFFFFFF000914
:20020000FFFFFFFFFFFFFFFFFFFFFFFFFFFFFFFFFFFFFFFFFFFFFFFFFFFFFFFFFFFFFFFFFE
:20022000FFFFFFFFFFFFFFFFFFFFFFFFFFFFFFFFFFFFFFFFFFFFFFFFFFFFFFFFFFFFFFFFDE
:20024000FFFFFFFFFFFFFFFFFFFFFFFFFFFFFFFFFFFFFFFFFFFFFFFFFFFFFFFFFFFFFFFFBE
:20026000FFFFFFFFFFFFFFFFFFFFFFFFFFFFFFFFFFFFFFFFFFFFFFFFFFFFFFFFFFFFFFFF9E
:20028000FFFFFFFFFFFFFFFFFFFFFFFFFFFFFFFFFFFFFFFFFFFFFFFFFFFFFFFFFFFFFFFF7E
:2002A000FFFFFFFFFFFFFFFFFFFFFFFFFFFFFFFFFFFFFFFFFFFFFFFFFFFFFFFFFFFFFFFF5E
:2002C000FFFFFFFFFFFFFFFFFFFFFFFFFFFFFFFFFFFFFFFFFFFFFFFFFFFFFFFFFFFFFFFF3E
:2002E000FFFFFFFFFFFFFFFFFFFFFFFFFFFFFFFFFFFFFFFFFFFFFFFFFFFFFFFFFFFFFFFF1E
:20030000FFFFFFFFFFFFFFFFFFFFFFFFFFFFFFFFFFFFFFFFFFFFFFFFFFFFFFFFFFFFFFFFFD
:20032000FFFFFFFFFFFFFFFFFFFFFFFFFFFFFFFFFFFFFFFFFFFFFFFFFFFFFFFFFFFFFFFFDD
:20034000FFFFFFFFFFFFFFFFFFFFFFFFFFFFFFFFFFFFFFFFFFFFFFFFFFFFFFFFFFFFFFFFBD
:20036000FFFFFFFFFFFFFFFFFFFFFFFFFFFFFFFFFFFFFFFFFFFFFFFFFFFFFFFFFFFFFFFF9D
:20038000FFFFFFFFFFFFFFFFFFFFFFFFFFFFFFFFFFFFFFFFFFFFFFFFFFFFFFFFFFFFFFFF7D
:2003A000FFFFFFFFFFFFFFFFFFFFFFFFFFFFFFFFFFFFFFFFFFFFFFFFFFFFFFFFFFFFFFFF5D
:2003C000FFFFFFFFFFFFFFFFFFFFFFFFFFFFFFFFFFFFFFFFFFFFFFFFFFFFFFFFFFFFFFFF3D
:2003E000FFFFFFFFFFFFFFFFFFFFFFFFFFFFFFFFFFFFFFFFFFFFFFFFFFFFFFFFFFFFFFFF1D
:200400000C9448020C9465020C9465020C9465020C9465020C9465020C9465020C946502C1
:200420000C9465020C9465020C9465020C9465020C9407060C942E060C9465020C94650211
:200440000C94A1050C9465020C9465020C9465020C9465020C9465020C9465020C94650225
:200460000C9465020C9467020C9465020C9465020C9465020C9465020C9465020C94CE06D5
:200480000C9490070C9465020C9465020C94650211241FBECFEFCDBFDFE3DEBF10E3A0E0E2
:2004A000B0E3E4EBF6E102C005900D92A630B107D9F721E3A6E0B0E301C01D92A53EB20786
:2004C000E1F70E94D1040C94390B0C9400021F920F920FB60F9211248F9381E08093A60A14
:2004E0008F910F900FBE0F901F9018956898609A6998619A6B98639A6A98629A6E98669A7B
:200500006F98679A0E9436051092093010920730109208301092063008950F931F93CF933D
:20052000DF9300D000D0CDB7DEB78C011B821C829B01770F440B550B60E874E88EE190E074
:200540000E94E20A29833A8349815A819A01ADECBCEC0E94010B9C013695279536952795CA
:2005600036952795C901880F991F880F991F820F931F880F991F481B590B542F442752955E
:20058000507F4B835C8329813A810E94010B96958795969587959695879589839A83498104
:2005A0005A81EB81FC819A010E94010B9C01369527953695279536952795C901880F991FE3
:2005C000880F991F820F931F880F991F481B590B4E2B5F2B4B835C8329813A810E94010BB0
:2005E00096958795969587959695879589839A8349815A81EB81FC819A010E94010B9C0189
:20060000369527953695279536952795C901880F991F880F991F820F931F880F991F481BE8
:20062000590B42955295507F5427407F54274E2B5F2B4B835C8329813A810E94010B969526
:200640008795969587959695879589839A8349815A81EB81FC819A010E94010B9C01369588
:2006600027953695279536952795C901880F991F880F991F820F931F880F991F481B590BEF
:20068000542F44274E2B5F2B4B835C836B817C81C8010E945A052496CDBFDEBFDF91CF9156
:2006A0001F910F910895CF93DF93EEE9F6E530E020E028C081E090E005C082E090E002C0A5
:2006C00090E080E0880F991FFC01EA56F94A6081718182E890E00E948D02CC0FDD1FC257AD
:2006E000D94A88819981809322309093233081E090E0DF91CF9108952F5F3F4F3496243061
:200700003105A1F0E901DF0190818917C9F29181891781F212969C911297891771F213968D
:200720009C919813E9CF83E090E0CCCF90E080E0E0CF6E986F980895E0910930E83130F4AB
:20074000F0E0EC5DFF4C8081811105C00E9499031092093008950E945303019729F00E94DC
:2007600099031092093008958091003090910130809307309093083081E080930630809172
:2007800009308F5F8093093008950E94630ABC0182E090E00E945A0508950E94680ABC013C
:2007A00082E090E00E945A0508950E94CE058238910521F08338910579F008956091223059
:2007C000709123306115710511F46E9A089583E890E00E948D0208958091063081110EC0DF
:2007E0006F9A8091223090912330892B31F010922230109223306E9A0895089580912230B6
:2008000090912330892BC1F3109222301092233008950E945D0980916C308032C9F08035A1
:2008200009F466C090916D30953409F472C0923409F475C0923509F488C010926C3050E06D
:2008400040E070E060E08EEA96E50E94D009089580916D308C3499F058F08035A1F183359F
:2008600001F18F3451F7809152300E945303E5CF813491F1853409F70E949903DECF82E5FA
:2008800090E30E9402079C01220F331F220F331F820F931F880F991F80930230909303306A
:2008A000CCCF82E590E30E9402079C01220F331F220F331F820F931F880F991F80930030A0
:2008C00090930130BACF62E570E384E290E30E94320B0E949C03B1CF80E1E6E7F6E5A4E299
:2008E000B0E301900D928A95E1F70E949C03A5CF80916D30833551F0873509F09ECF82E559
:2009000090E30E9402070E94C50397CF0E94CD0394CF883411F06F9890CF6E988ECF8834D2
:2009200051F082E590E30E940207BC0183E890E00E948D0282CF82E590E30E940207BC0195
:2009400082E890E00E948D0278CF833529F0833409F073CF689871CF689A6FCF80910730BA
:2009600090910830009779F001978093073090930830892B41F480910630813029F00E9445
:2009800099030E949C030895809102309091033080930730909308306E9A6F9A10920630B8
:2009A0000895CF93DF93CDB7DEB72897CDBFDEBF88E0E6E8F6E5DE01119601900D928A95DF
:2009C000E1F70E94580A0E94EF050E943D06682F81EB96E50E9459068AE090E30E94F205CB
:2009E0000E9476020E94440A0E94450A67E070E0CE0101960E94450707C00E9409040AC0D1
:200A000080910A30813069F00E9429090E94410A813099F30E94D705019791F70E94D5036B
:200A2000EFCF10920A300E94AE040E94F206ECCF87FD0FC04DB18F7721E030E0B90102C08F
:200A4000660F771F8A95E2F7CB01809584238DB908959DB18F7721E030E002C0220F331F7E
:200A60008A95E2F7892F822B8DB908951092493010923D30109248300598E5E1F4E08081BA
:200A8000877F80830C98049A0E98069A0F9A079AE0ECF8E087E8818387E3808312820895C6
:200AA0008093C408E0ECF8E0838185FFFDCF9093C4080895CF93DF9320914830222321F080
:200AC00081E0DF91CF910895EB0180930430909305300E94180581E080934830CE010E94A1
:200AE000500580E0EECF80913D3090914930891769F0E82FF0E0E25CFF4C90819093C40803
:200B00008F5F80933D3081E090E00895E0ECF8E080818E7F808380910430909105308058D1
:200B20000E9418051092493010923D301092483081E090E080930B3090930C3090E080E064
:200B400008951F920F920FB60F9211242F933F934F935F936F937F938F939F93AF93BF93A7
:200B6000EF93FF938091C308882321F08091C30888238CF0FF91EF91BF91AF919F918F91D6
:200B80007F916F915F914F913F912F910F900FBE0F901F9018950E947305ECCF8091043064
:200BA00090910530109204301092053008958091C30886FD03C090E080E00895E0ECF8E062
:200BC000838180648383809104309091053080580E9418051092483081E090E008950E94CB
:200BE0006B0A089580934A3090934B30E0E8FAE080E29EE48487958781E085838083089502
:200C0000E0914A30F0914B3081E0808308951F920F920FB60F9211242F933F934F935F9397
:200C20006F937F938F939F93AF93BF93EF93FF930E94000681E08093860AFF91EF91BF9198
:200C4000AF919F918F917F916F915F914F913F912F910F900FBE0F901F9018951F920F92DB
:200C60000FB60F9211248F9381E08093960A8F910F900FBE0F901F9018950098E0E1F4E0EF
:200C80008081877F80830198E1E1F4E08081877F80830298E2E1F4E08081877F808303983B
:200CA000E3E1F4E08081877F808382B180958F700895DC012C91E9EBF0E3208311968C9106
:200CC0008183EEEBF0E38DEC689F812D112486958695869590E3980F9083982F990F990F6C
:200CE000890F880F681B605D6183EFE6F0E38FE890E311928E179F07E1F7E0E4F8E087E442
:200D000090E18087918780E8858380EC868381E08387A198E1EBF4E08081877F8083A898D0
:200D2000A09A08958091410882FF15C0809140088093913081E090E080930D3090930E307D
:200D40008091410886FF06C081E090E080930F3090931030089582E70E946E0AE091503057
:200D6000F0915130EF71FF2780914008EB56FF4C8083E0915030F0915130EF71FF27EB5649
:200D8000FF4C80810E946E0A809150309091513001968093503090935130D2CF1F920F92F9
:200DA0000FB60F9211242F933F934F935F936F937F938F939F93AF93BF93EF93FF930E947E
:200DC0009206FF91EF91BF91AF919F918F917F916F915F914F913F912F910F900FBE0F9010
:200DE0001F9018958091143090911530009749F001978093143090931530892B11F410925A
:200E000016300895DC018C91805320E08A3020F090E080E00895282F422F81E0820FFD0133
:200E2000E80FF11D87FDFA95908190539A3098F3222344F1022E000C330BF9013196EA0FA3
:200E4000FB1FA20FB31FA41BB10921E030E090E080E042914053550B429FB001439F700DE4
:200E6000529F700D1124860F971FA901440F551F440F551F240F351F220F331FEA17FB073F
:200E800041F7089590E080E00895E0911B3040911A309B012E0F311D240F311D2032310509
:200EA00004F51616170674F4DC01E40FFF27FF1FEF53FF4C9C01260F371F9D919193A217B4
:200EC000B307D9F7460F40931A3080911830811108C0E0E4F8E085818062858381E0809363
:200EE0001830089580911A3081110AC010921B3010921830E0E4F8E085818F7D858308952C
:200F0000E0911B3091E09E0F90931B30F0E0EF53FF4C908190934208815080931A300895E3
:200F20001F920F920FB60F9211242F933F934F935F936F937F938F939F93AF93BF93EF93DE
:200F4000FF930E947207FF91EF91BF91AF919F918F917F916F915F914F913F912F910F90E5
:200F60000FBE0F901F901895EF92FF920F931F93CF93DF93C82F0E94830A8091123080FD79
:200F80009DC0809116308823B1F128EE33E02093143030931530823009F44AC0F8F08330D4
:200FA00009F47AC0843009F089C0E0911930F0E0E159FF4CC0833197E080FE2CEC2EE092D4
:200FC000B730F092B830D0E0C0E070E060E0AFE6B0E380E050E001E210E1B0C0882359F0F0
:200FE000813009F06BC081E30E94830AC238B1F01092163063C080E30E94830AC03941F027
:20100000E0911930F0E0E159FF4C8FEF808356C0809116308F5F8093163050C01092193091
:2010200010921130809116308F5F8093163046C082E30E94830A80911130882309F4F8C0E3
:20104000C33831F0C03909F0F6C010921130F3C0809119308F31B0F4E82FF0E0E159FF4C0C
:2010600090E99083E1E0E80FF0E0E159FF4C93E890838E5F80931930809116308F5F8093A8
:2010800016301CC01092163019C081E08093113015C01092163012C083E30E94830A809183
:2010A0001930E82FF0E0E159FF4CC0838F5F80931930809116308F5F80931630DF91CF9180
:2010C0001F910F91FF90EF9008959D012F5F3F4F219611969C91933811F0D90132C088E0D0
:2010E000F0E0E0E0B1E2A0E10BC02B2F3A2FAB01440F551FBA0162277327990F8150E9F11A
:201100009B01392733238CF32F2F3E2FF0CF202F312FFB01EE0FFF1FB9016E277F27440F66
:20112000915039F09B01342733238CF3282F352FF0CF11962196C032D10534F49C9190391B
:2011400021F24C9198E0EECFE0939330F09394302093E3303093E43088E080931330E61696
:20116000F706B9F010926F3010921930109214301092153010921630A1CF409393305093FF
:2011800094302093E3303093E43088E080931330E6CF90916F308091B9309813E7CF90913F
:2011A00070308091BA309813E1CF80917130893371F1909171308091BE309813D7CF909136
:2011C00072308091BF309813D1CFACE6B0E3EFE6F0E380858C93818511968C931197129615
:2011E0001C922285203909F1A2E5B0E3EAE7F0E32D93CF018F56904321912039C9F7885B93
:201200009F4CFC01108281E080931730AFCF80917230893371F680917730883551F6809178
:201220007830883531F6A895C4CF8AE090E0E7CFC03909F42ACF80911930803208F029CFD7
:20124000E82FF0E0E159FF4CC0838F5F8093193035CFCF930E94580A8091E1309091E230D6
:2012600020915030309151308217930711F18F719927FC01EB56FF4CC0810E94450A80913A
:20128000E1309091E23001968093E1309093E2308C2F0E94830A8C2F0E94B40780E70E940F
:2012A000830A809117308823A9F282E60E94830AD1CF0E94450ACF91089510921730089558
:2012C000FF920F931F93CF93DF93DC01D0E0C0E070E060E050E080E001E210E16894FF2415
:2012E000F3F843C09D012F5F3F4F219611969C91933811F0D9013DC088E0F0E0E0E0B1E28D
:20130000A0E10BC02B2F3A2FAB01440F551FBA0162277327990F815089F19B013927332328
:201320008CF32F2F3E2FF0CF202F312FFB01EE0FFF1FBF0162277327440F915039F09B0102
:20134000342733238CF3252F382FF0CFE0939330F09394302093E3303093E430F092133004
:2013600011962196C83CD105A4F49C91903909F4B9CF109213304C9198E0E1CF40939330A2
:20138000509394302093E3303093E43088E080931330CB01DF91CF911F910F91FF90089533
:2013A000CF92DF92EF92FF920F931F93CF93DF93CDB7DEB7E297CDBFDEBF8C01C62ED72EE0
:2013C0007A010E94580A80E9898382E88A8380E58B8383E48C8380E38D838E83E9EBF0E38E
:2013E00080818F8381818887EEEBF0E38081898781818A87F80180818B8781818C871E14A6
:201400001F04E4F5EC2DFD2DDE011D9610E000E081918D930F5F1F4FE016F10619F00431F2
:201420001105B1F7FE01E00FF11F80E98587FE01E00FF11F83E88687CE0103960E94600992
:20144000FE01E00FF11F9787FE01E00FF11F8FEF808B0E94450AB801605F7F4FCE0101964C
:201460000E944507E296CDBFDEBFDF91CF911F910F91FF90EF90DF90CF90089510E000E074
:20148000D1CF809117300895089580911C3090911D300197181619062CF480931C309093C8
:2014A0001D30089510921C3010921D3078940895F89480911C3090911D30019680931C306F
:2014C00090931D30089590E0982F88278161089581E290E008950E94C50A0895209120301B
:2014E00030912130A901552740931E3050931F304B515F4CFA0180832F5F3F4F20932030FD
:20150000309321300895CF93C82F0E94580A8C2F0E946E0A0E94450ACF910895E0E1F4E065
:20152000808188608193E83184E0F807C9F7E0E3F4E0808188608193E83384E0F807C9F7A0
:20154000E0E5F4E0808188608193E83584E0F807C9F7E0E7F4E0808188608193E83784E09A
:20156000F807C9F7E0E9F4E0808188608193E83984E0F807C9F7E0EBF4E080818860819332
:20158000E83B84E0F807C9F708950E948E0A0E94D00A0E94DA0A0E94E00A0E94D80A08957F
:2015A00040E168ED81E690E00E94DC0A80E0089580E0089580E00895FC0164BF40830895DF
:2015C00080E00895052E97FB1EF400940E94F90A57FD07D00E94100B07FC03D04EF40C945E
:2015E000F90A50954095309521953F4F4F4F5F4F089590958095709561957F4F8F4F9F4F6D
:201600000895A29FB001B39FC001A39F700D811D1124911DB29F700D811D1124911D0895FC
:20162000A1E21A2EAA1BBB1BFD010DC0AA1FBB1FEE1FFF1FA217B307E407F50720F0A21B84
:20164000B30BE40BF50B661F771F881F991F1A9469F760957095809590959B01AC01BD011A
:20166000CF010895FB01DC0101900D920020E1F70895F894FFCF31323334353637383930F8
:201680002A234142430055555555550D0A00B90202035403AD03B9043805C5056106313222
:1816A000334134353642373839432A3023444F4B0020440032003200CF
:00000001FF
