:2000000001C0F7C0112480914000882359F083FD03C0982F9C7F31F4809340008CBB80E0AA
:20002000D7D0F5C0A895A09AA89A1092E205809182128370813009F4B1C083E790E080937E
:2000400048089093490881E080934B0883E0809347081092450880EC8093460888E0B8D0A4
:20006000019A86E0119A2EEC36E504C02150310909F497C0A8959091440897FD16C0F6CF03
:200080008534E9F0853509F432C0863549F1843609F435C0843709F458C0853709F470C0CB
:2000A000813551F19ED080E181D087D0813469F0823431F7C4E181D0C150E9F7F3CF7DD0EF
:2000C0007CD07BD07AD079D0EDCF77D0C82F89D0C23859F0C13809F436C083E067D0E3CF28
:2000E0006CD06BD06AD069D07CD080E0F7CF65D0082F63D0182FD6CF81E06AD0D3CF5DD0AF
:200100005CD0E82E5AD0863409F444C01C5EE801EA94F12C8FEFE81AF80AE00EF11E219684
:200120008E014BD0FE0131978083EC16FD06B9F758D083E09DE994BF8093001080910210EC
:200140008370E1F7B0CF89E0C9CF37D036D0E82E34D0C82F46D0C634F9F01C5EE801EA945C
:20016000F12C8FEFE81AF80AE00EF11E21968E01FE01319780811AD0EC16FD06B9F793CFD4
:2001800030D08091001112D0809101110FD080910211A4CF1F5BBBCF1F5BE0CF8CE590E0B4
:2001A0004ECF815009F05ECFA8957FCF9091440895FFFCCF8093420808958091440887FFF7
:2001C000FCCF909141088091400892FFA89508959091010190FDFCCF98ED94BF80930001BF
:2001E0000895EBDF803219F081E0F2DFFFCF84E1DDCF683048F48DE984BF6093001080912B
:2002000002108370E1F70895FC0140830895FFFFFFFFFFFFFFFFFFFFFFFFFFFFFFFFFFFF19
:20022000FFFFFFFFFFFFFFFFFFFFFFFFFFFFFFFFFFFFFFFF0009FFFFFFFFFFFFFFFFFFFFD3
:20024000FFFFFFFFFFFFFFFFFFFFFFFFFFFFFFFFFFFFFFFFFFFFFFFFFFFFFFFFFFFFFFFFBE
:20026000FFFFFFFFFFFFFFFFFFFFFFFFFFFFFFFFFFFFFFFFFFFFFFFFFFFFFFFFFFFFFFFF9E
:20028000FFFFFFFFFFFFFFFFFFFFFFFFFFFFFFFFFFFFFFFFFFFFFFFFFFFFFFFFFFFFFFFF7E
:2002A000FFFFFFFFFFFFFFFFFFFFFFFFFFFFFFFFFFFFFFFFFFFFFFFFFFFFFFFFFFFFFFFF5E
:2002C000FFFFFFFFFFFFFFFFFFFFFFFFFFFFFFFFFFFFFFFFFFFFFFFFFFFFFFFFFFFFFFFF3E
:2002E000FFFFFFFFFFFFFFFFFFFFFFFFFFFFFFFFFFFFFFFFFFFFFFFFFFFFFFFFFFFFFFFF1E
:20030000723088E08093DE314C175D0709F043C083E60E94D80890914D30809197309813E2
:200320003EC090914E3080919830981338C090914F3080919C30981332C0909150308091D8
:200340009D3098132CC0AAE4B0E3EDE4F0E380858C93818511968C93119712961C922285DF
:20036000203961F0A0E3B0E3E8E5F0E38AE090E02D93019621912039D9F702C08AE090E075
:20038000FC01EA5DFF4C108281E08093E03187E60E94D80804C010924D301092E23110928E
:2003A000D3311092D4311092DF310CC0C03909F01ECF17CFC03909F01ACF17CFFC013081E0
:2003C00028E07ECFDF91CF911F910F9108958091C30886FF11C0E0ECF8E083818064838347
:2003E0008091CD319091CE3180580E94D3071092263081E090E0089580E090E0089508950A
:200400000C94D7010C9466090C9466090C9466090C9466090C9466090C9466090C946609FB
:200420000C9466090C9466090C9466090C9466090C9421070C94A1080C9466090C94660951
:200440000C94A5060C9466090C9466090C9466090C9466090C9466090C9466090C946609E8
:200460000C9466090C9492080C9466090C9466090C9466090C9466090C9466090C944807F9
:200480000C946C070C9466090C9466090C946609300031C58031C531C90012E231C931CD9A
:2004A0008031CD31CF0012E631CF31E5800011241FBECFEFCDBFDFE3DEBFE0E9F3E043E0B6
:2004C00017C0B591A59135912591059107FD0CC095918591EF01F92FE82F05900D92A2178F
:2004E000B307D9F7FE0104C01D92A217B307E1F7ED3AF40731F70E9449060C94FF01F8944E
:20050000FFCF0F931F93CF93DF9300D000D0CDB7DEB78C011B821C829B01770F440B550B93
:2005200060E874E88EE190E00E94430829833A8349815A819A01ADECBCEC0E94B0089695DC
:20054000879596958795969587959C01220F331F880F991F880F991F880F991F820F931FA1
:200560009A01281B390BC901982F88279295907F8B839C8329813A810E94B00896958795B0
:20058000969587959695879589839A8349815A819A010E94B0089695879596958795969551
:2005A00087959C01220F331F880F991F880F991F880F991F820F931F9A01281B390BC901E3
:2005C0002B813C81822B932B8B839C8329813A810E94B00896958795969587959695879586
:2005E00089839A8349815A819A010E94B0089695879596958795969587959C01220F331F43
:20060000880F991F880F991F880F991F820F931F9A01281B390BC90182959295907F9827B2
:20062000807F98272B813C81822B932B8B839C8329813A810E94B0089695879596958795AE
:200640009695879589839A8349815A819A010E94B0089695879596958795969587959C011E
:20066000220F331F880F991F880F991F880F991F820F931F9A01281B390B922F88272B8189
:200680003C81822B932B8B839C836B817C81C8010E940E082496CDBFDEBFDF91CF911F9138
:2006A0000F9108950E945D0980914A30803209F059C080914B308C3481F038F4813409F40B
:2006C00045C0853409F43FC092C0803571F18335C1F08F3409F08BC031C080E390E30E941E
:2006E00061049C01220F331F880F991F880F991F880F991F820F931F8093C7319093C8311E
:2007000076C080E390E30E9461049C01220F331F880F991F880F991F880F991F820F931F76
:200720008093C5319093C63162C060E370E382E090E30E943F090E94D10659C0809130301C
:200740000E94DD0454C00E94310951C080E1E2E2F2E5A2E0B0E301900D928A95E1F70E943B
:20076000D10645C0803581F480914B30833549F08735E9F580E390E30E9461040E940109D3
:2007800036C00E94090933C090914B30953451F4883421F48DB18F7B8DB929C08DB18F7786
:2007A0008DB925C09234B1F4883451F480E390E30E946104BC0182E890E00E94010217C0B2
:2007C00080E390E30E946104BC0183E890E00E9401020DC0923559F4833521F48DB1816032
:2007E0008DB905C0833419F48DB18E7F8DB910924A3040E050E060E070E08CED92E50E940B
:2008000082030895CF92DF92EF92FF920F931F93CF93DF93CDB7DEB7E297CDBFDEBF7C0172
:20082000C62ED72E8A010E94CD0880E9898382E88A8380E58B8383E48C8380E38D838E8364
:20084000E7E9F0E380818F8381818887ECE9F0E38081898781818A87F70180818B878181F8
:200860008C87101611068CF4EC2DFD2DDE011D9680E090E003C08431910551F021912D9342
:20088000019608171907B9F705C000E010E002C004E110E0FE01E00FF11F80E98587FE0134
:2008A000E00FF11F83E88687CE0103960E94F603FE01E00FF11F9787FE01E00FF11F8FEF26
:2008C000808B0E946F08B801605F7F4FCE0101960E94B905E296CDBFDEBFDF91CF911F91C7
:2008E0000F91FF90EF90DF90CF9008950F931F93CF93DF93EC0100E010E060E070E0A1E2E7
:20090000B0E158E08881803909F050C0CE0101960F5F1F4F2981233809F047C038E0E1E221
:20092000F0E1CB019227892F880F880B082E000C990B8E239F23AB01440F551FBC0164276B
:200940007527220F315069F78093C1309093C230409371305093723088E08093DE312BC062
:200960009B013427232F220F220B022E000C330B2A233B23FB01EE0FFF1FB9016E277F279F
:20098000440F915069F72093C1303093C230E0937130F09372305093DE3121960F5F1F4FAC
:2009A000083C11050CF4AECF06C0EC011092DE31488198E0D5CFCB01DF91CF911F910F912B
:2009C0000895FC01808180538A30A0F590E001C0932F31E0390FDF01A30FB11D37FDBA952B
:2009E0002C9120532A30A0F399233CF121E030E060E070E0DF01A90FB11D97FDBA954C912A
:200A000050E040535109429FD001439FB00D529FB00D11246A0F7B1FA901440F551F220FD0
:200A2000331F220F331F220F331F240F351F91500AF705C060E070E002C060E070E0CB0182
:200A400008958091410882FD23C082E70E945A08E0912E30F0912F30EF71FF278091400842
:200A6000ED58FF4C8083E0912E30F0912F30EF71FF27ED58FF4C80810E945A0880912E30AA
:200A800090912F30019680932E3090932F300AC08091400880936F3081E090E08093CF3193
:200AA0009093D0318091410886FF06C081E090E08093D1319093D2310895CF93DF9350E0C0
:200AC0002EC0C52FD0E0292F30E0FE01EE0FFF1FEE0FFF1FEE5CFD4AE20FF31F4081481337
:200AE00018C0220F331FF901E256FD4A6081718182E890E00E940102CC0FDD1FCA56DD4AB2
:200B000088819981809300309093013081E090E00AC09F5F01C090E0943098F25F5F5430C1
:200B2000D0F380E090E0DF91CF910895DC012C91E7E9F0E3208311968C918183ECE9F0E365
:200B40008DEC689F812D112486958695869590E3980F9083880F982F990F990F890F681BEB
:200B6000605D6183EDE4F0E38DE690E311928E179F07E1F7E0E4F8E087E490E180879187ED
:200B800080E88583868381E08387A198E1EBF4E08081877F8083A898A09A0895E0E1F4E0E2
:200BA000808188608193E83184E0F807C9F7E0E3F4E0808188608193E83384E0F807C9F72A
:200BC000E0E5F4E0808188608193E83584E0F807C9F7E0E7F4E0808188608193E83784E024
:200BE000F807C9F7E0E9F4E0808188608193E83984E0F807C9F7E0EBF4E0808188608193BC
:200C0000E83B84E0F807C9F70895CF930E94CD088091BF309091C03020912E3030912F30D8
:200C20008217930711F18F719927FC01ED58FF4CC0810E946F088091BF309091C030019630
:200C40008093BF309093C0308C2F0E94D8088C2F0E94000080E70E94D8088091E03188232F
:200C6000A9F282E60E94D808D1CF0E946F08CF9108955091E4314091E3319B01250F311D40
:200C8000240F311D2032310524F5161617067CF4FC01A42FB0E0A50FB11DA156BF4C9C01F8
:200CA000260F371F91919D93E217F307D9F7640F6093E3318091E13181110BC0E0E4F8E0FE
:200CC00085818062858386818064868381E08093E13108950E94F8088238910521F083384F
:200CE000910589F0089560910030709101306115710529F083E890E00E94010208958DB195
:200D000080648DB908958091D931811103C09DB190689DB92091003030910130232B49F0A6
:200D20001092003010920130811103C08DB180648DB908958DB18E7F8DB98CB181608CB9C0
:200D40008DB18D7F8DB98CB182608CB98DB1877F8DB98CB188608CB98DB18B7F8DB98CB1E0
:200D600084608CB98DB18F7B8DB98CB180648CB98DB18F778DB98CB180688CB90E9429088F
:200D80001092DA311092C3311092C4311092D93108950E94CD080E9457090E94F207682F85
:200DA0008FED92E50E9416058BED91E30E94BF080E941A060E947F010E946F080E94850505
:200DC0000E946009813011F40E94D2020E946701019711F40E94EA058091DB31813071F76E
:200DE0001092DB310E94FA060E948208E7CF80911B309091273089131BC0E0ECF8E08081D1
:200E00008E7F80838091CD319091CE3180580E94D3071092273010921B301092263081E000
:200E200090E08093CB319093CC3180E090E00895E82FF0E0E45EFF4C90819093C4088F5F44
:200E400080931B3081E090E008951F920F920FB60F9211242F933F934F935F936F937F935D
:200E60008F939F93AF93BF93EF93FF938091C308882331F08091C308882314F40E94770620
:200E8000FF91EF91BF91AF919F918F917F916F915F914F913F912F910F900FBE0F901F9038
:200EA0001895E091DA31E83130F4F0E0EE5FFF4C8081811105C00E9431091092DA310895E6
:200EC0000E94DD04019789F48091C5319091C6318093C3319093C43181E08093D9318091AD
:200EE000DA318F5F8093DA3108950E9431091092DA3108958091C3319091C431009701F174
:200F000001978093C3319093C431892BC9F48091D931813089F48091C7319091C83180932A
:200F2000C3319093C4318DB180648DB98DB180688DB91092D93108950E9431090E94D10633
:200F400008951F920F920FB60F9211242F933F934F935F936F937F938F939F93AF93BF93A3
:200F6000EF93FF930E94380981E08093860AFF91EF91BF91AF919F918F917F916F915F9186
:200F80004F913F912F910F900FBE0F901F9018951F920F920FB60F9211242F933F934F9317
:200FA0005F936F937F938F939F93AF93BF93EF93FF930E94A104FF91EF91BF91AF919F9118
:200FC0008F917F916F915F914F913F912F910F900FBE0F901F9018951F920F920FB60F9262
:200FE00011242F933F934F935F936F937F938F939F93AF93BF93EF93FF930E94B207FF9159
:20100000EF91BF91AF919F918F917F916F915F914F913F912F910F900FBE0F901F90189599
:20102000A1E21A2EAA1BBB1BFD010DC0AA1FBB1FEE1FFF1FA217B307E407F50720F0A21B8A
:20104000B30BE40BF50B661F771F881F991F1A9469F760957095809590959B01AC01BD0120
:20106000CF0108958091E331882381F0E091E43191E09E0F9093E431F0E0E156FF4C908183
:201080009093420881508093E33108951092E4311092E131E0E4F8E085818F7D8583868126
:2010A0008F7B8683089587FF0EC04DB18F7721E030E0B90102C0660F771F8A95E2F7CB01CC
:2010C000842B8DB908954DB18F7721E030E0B90102C0660F771F8A95E2F7CB018095842362
:2010E0008DB908950098E0E1F4E08081877F80830198E1E1F4E08081877F80830298E2E140
:20110000F4E08081877F80830398E3E1F4E08081877F808382B180958F7008950F931F937C
:20112000CF93C0912630C1110EC08B018093CD319093CE310E94D30781E080932630C80138
:201140000E94EE0801C0C1E08C2FCF911F910F9108951092273010921B3010922630059812
:20116000E5E1F4E08081877F80830C98049A0E98069A0F9A079AE0ECF8E087E8818387E378
:20118000808312820895052E97FB1EF400940E94290957FD07D00E94900707FC03D04EF460
:2011A0000C94290950954095309521953F4F4F4F5F4F08952091D7313091D831A901552708
:2011C0004093D5315093D631FA01ED53FF4C80832F5F3F4F2093D7313093D8310895809172
:2011E000C9319091CA310197181619062CF48093C9319093CA3108951092C9311092CA31D3
:20120000789408958091D3319091D431009749F001978093D3319093D431892B11F41092E8
:20122000DF3108951F920F920FB60F9211248F9381E08093A60A8F910F900FBE0F901F90F4
:2012400018951F920F920FB60F9211248F9381E08093960A8F910F900FBE0F901F90189537
:20126000A29FB001B39FC001A39F700D811D1124911DB29F700D811D1124911D089580932A
:20128000283090932930E0E8FAE080E29EE48487958781E0858380830895F8948091C9312D
:2012A0009091CA3101968093C9319093CA310895CF93C82F0E94CD088C2F0E945A080E9482
:2012C0006F08CF9108950E944E050E9421090E946C090E9468090E946A0908958093C4081E
:2012E000E0ECF8E0838185FFFDCF9093C40808958091CD319091CE311092CD311092CE31FA
:2013000008950E944609BC0182E090E00E940E0808950E945A09BC0182E090E00E940E080F
:201320000895313233343536373839302A23414243003132334134353642373839432A30F3
:20134000234440E168ED81E690E00E94530980E0089590958095709561957F4F8F4F9F4F0F
:2013600008958DB18F7B8DB98DB18F778DB90895E0912830F091293081E080830895FB017B
:20138000DC0101900D920020E1F7089590E0982F882781610895B90202035403AD03B904C2
:2013A0003805C5056106FC0164BF408308950E946309089581E290E008951092E0310895D4
:2013C0008091E03108950E94E30808950C94800180E0089580E0089580E008954F4B002052
:0613E0004400320032005F
:00000001FF
