:1000000001C076C10000CDB7DEB72597CDBFDEBFFA
:10001000112480E490E0FC01808189838981882318
:10002000D1F08981882F90E088709927892B31F44D
:100030008981882F90E08C7F892B69F480E490E09F
:100040002981FC0120838CE190E02981FC0120833F
:1000500080E033D1D5C1A89580E090E0FC012081FB
:1000600080E090E02160FC01208380E090E0FC01D2
:10007000218180E090E02160FC01218380EE95E009
:10008000FC01128282E892E1FC018081882F90E0DD
:1000900083709927019741F480E098E02CE530E0E7
:1000A000FC012087318707C080E098E023E730E03B
:1000B000FC012087318780E098E021E0FC01238764
:1000C00080E098E023E0FC01278380E098E0FC01D9
:1000D000158280E098E020ECFC01268388E0EDD0DA
:1000E000A5D0898389818134B1F4A0D08B83D5D008
:1000F0008B81823821F480E099E07DD079C08B81BA
:10010000813831F480E099E0892F992774D070C04C
:1001100083E071D06DC08981853531F487D0082F97
:1001200085D0182FBAD064C08981843609F042C0C6
:100130007DD07CD0F82E7AD08A838A81863421F4CF
:10014000C801905C8C0103C0C8019C5E8C016801F1
:10015000C60101968C016AD0F6018083FA94FF20D3
:10016000B1F79BD0000080E090E1FC018281882FF4
:1001700090E083709927892BB1F78DE993E084BFD4
:1001800090930010000080E090E1FC018281882FB4
:1001900090E083709927892BB1F780E090E1FC0112
:1001A0008281882F90E084709927892B09F181E161
:1001B00022D01EC089818437D9F438D037D0F82EA8
:1001C00035D08A836AD08A81863421F4C801905C54
:1001D0008C0103C0C8019C5E8C01C8019C012F5F8B
:1001E0003F4F8901FC01808106D0FA94FF20A9F7D6
:1001F00080E101D075CFCF93DF931F92CDB7DEB7EB
:100200008983000080E098E0FC018481882F90E0E1
:1002100080729927892BB1F380E098E02981FC0155
:10022000228300000F90DF91CF910895CF93DF9349
:1002300000D0CDB7DEB7000080E098E0FC018481FB
:100240008823D4F780E098E0FC018181898380E0F5
:1002500098E0FC0180818A838981882F90E08470F6
:100260009927892B09F4A8958A810F900F90DF9127
:10027000CF910895CF93DF931F92CDB7DEB78983D7
:10028000D5DF89818150898389818823C9F705D089
:1002900000000F90DF91CF910895CF93DF93CDB7FA
:1002A000DEB7C4DF803219F081E007D0FFCF84E1F0
:1002B000A2DF0000DF91CF910895CF93DF931F92CB
:1002C000CDB7DEB78983000080E091E0FC01818139
:1002D000882F90E081709927892BB1F788ED99815B
:1002E00084BF9093000100000F90DF91CF9108959B
:1002F000CF93DF9300D000D0CDB7DEB789839A8348
:100300006B834C838B81883088F48DE99B8184BF1B
:1003100090930010000080E090E1FC018281882F22
:1003200090E083709927892BB1F705C089819A8164
:100330002C81FC01208300002496CDBFDEBFDF911D
:04034000CF910895BC
:0203FE000009F4
:00000001FF
