:1000000001C0D4C0112480914000882349F0982F6A
:10001000907383FF2FC0992379F188E0809340008B
:10002000A895A09AA89A1092E205809182128370F6
:10003000813039F58CE590E0809348089093490829
:1000400081E080934B0883E0809347081092450835
:1000500080EC8093460888E091D00FEF83E0D82EA3
:1000600081D08134C9F47ED0182F91D0123861F438
:1000700080E00EC09111D4CF282E80E07FD0C0C088
:10008000CFCF83E790E0D8CF89E0113809F083E043
:1000900062D080E160D0E4CF823419F484E17FD073
:1000A000F8CF853411F485E0FACF853531F45AD094
:1000B000C82F58D0D82F6BD0ECCF863519F484E0F8
:1000C0006ED0D6CF8436C1F44DD04CD0182F4AD044
:1000D000863481F4D05C46D0888321961150D9F7BC
:1000E00056D08DE984BFD0920010809102108370A9
:1000F000E1F7CFCFDC5EEFCF843791F433D032D04D
:10010000182F30D0F82E43D086E4F81207C0D05C08
:100110008881219620D01150D9F7BBCFDC5EF8CF73
:10012000853751F434D08091001115D080910111A0
:1001300012D080910211ACCF813509F0BCCF27D00D
:1001400080E109D0009340008091440886FFFCCFF5
:100150000C9400009ECF9091440895FFFCCF8093B3
:10016000420808958091440887FFFCCF9091410890
:100170008091400892FD01C0A895089590910101D9
:1001800090FDFCCF98ED94BF809300010895EADFC5
:10019000803219F081E0F2DFFFCF84E1DCCFCF9332
:1001A000C82FE0DFC150E9F7CF91F1CF683048F4B4
:1001B0008DE984BF60930010809102108370E1F795
:0801C0000895FC01408308953D
:0201FE000009F6
:00000001FF
