:1000000001C0CDC0112480911F138B3E39F4809123
:1000100008048F7019F088E0AAD0F2D0A895A09AB1
:10002000A89A1092E205809182128370813011F5B6
:100030008CE590E0809348089093490881E0809394
:100040004B0883E0809347081092450880EC80932A
:10005000460888E08CD08BEEC82E0DE993E0D92EAF
:100060007AD0813491F477D0182F8AD0123829F4BD
:1000700080E007C083E790E0DDCF89E0113809F028
:1000800083E062D080E160D0EBCF823419F484E168
:100090007FD0F8CF853411F485E0FACF853531F47F
:1000A0005AD0C82F58D0D82F6BD0ECCF863519F442
:1000B00084E06ED0DDCF8436B9F44DD04CD0182F0B
:1000C0004AD0863479F4D05C46D08883219611508A
:1000D000D9F756D004BFD0920010809102108370DF
:1000E000E1F7D0CFDC5EF0CF843791F434D033D059
:1000F000182F31D0F82E44D086E4F81207C0D05C17
:100100008881219621D01150D9F7BCCFDC5EF8CF81
:10011000853751F435D08091001116D080910111AE
:1001200013D080910211ADCF813509F0BDCF28D019
:10013000C0921F1304BFD09200108091021081FD65
:10014000FCCF81E014D09ECF9091440895FFFCCF66
:100150008093420808958091440887FFFCCF9091D6
:1001600041088091400892FD01C0A89508959091A2
:10017000010190FDFCCF98ED94BF8093000108959C
:10018000EADF803219F081E0F2DFFFCF84E1DCCFDB
:10019000CF93C82FE0DFC150E9F7CF91F1CF68309E
:1001A00048F48DE984BF6093001080910210837041
:0A01B000E1F70895FC014083089573
:0201FE000009F6
:1002000080914000809340008091FE019091FF0119
:1002100081E080931F138DE993E084BF90930010D9
:10022000809102108370E1F788ED91E084BF909394
:0202300041008B
:00000001FF
